{
  "_format": "hh-sol-artifact-1",
  "contractName": "Tokenization",
  "sourceName": "contracts/Tokenization.sol",
  "abi": [
    {
      "inputs": [
        {
          "internalType": "bytes32",
          "name": "_hashTokenPackages",
          "type": "bytes32"
        },
        {
          "internalType": "uint256",
          "name": "_redemptionTime",
          "type": "uint256"
        },
        {
          "internalType": "address[]",
          "name": "_packageOwner",
          "type": "address[]"
        },
        {
          "internalType": "uint256[]",
          "name": "_tokenIncome",
          "type": "uint256[]"
        }
      ],
      "stateMutability": "nonpayable",
      "type": "constructor"
    },
    {
      "anonymous": false,
      "inputs": [
        {
          "indexed": true,
          "internalType": "address",
          "name": "owner",
          "type": "address"
        },
        {
          "indexed": true,
          "internalType": "address",
          "name": "approved",
          "type": "address"
        },
        {
          "indexed": true,
          "internalType": "uint256",
          "name": "tokenId",
          "type": "uint256"
        }
      ],
      "name": "Approval",
      "type": "event"
    },
    {
      "anonymous": false,
      "inputs": [
        {
          "indexed": true,
          "internalType": "address",
          "name": "owner",
          "type": "address"
        },
        {
          "indexed": true,
          "internalType": "address",
          "name": "operator",
          "type": "address"
        },
        {
          "indexed": false,
          "internalType": "bool",
          "name": "approved",
          "type": "bool"
        }
      ],
      "name": "ApprovalForAll",
      "type": "event"
    },
    {
      "anonymous": false,
      "inputs": [
        {
          "indexed": true,
          "internalType": "address",
          "name": "previousOwner",
          "type": "address"
        },
        {
          "indexed": true,
          "internalType": "address",
          "name": "newOwner",
          "type": "address"
        }
      ],
      "name": "OwnershipTransferred",
      "type": "event"
    },
    {
      "anonymous": false,
      "inputs": [
        {
          "indexed": true,
          "internalType": "address",
          "name": "from",
          "type": "address"
        },
        {
          "indexed": true,
          "internalType": "address",
          "name": "to",
          "type": "address"
        },
        {
          "indexed": true,
          "internalType": "uint256",
          "name": "tokenId",
          "type": "uint256"
        }
      ],
      "name": "Transfer",
      "type": "event"
    },
    {
      "inputs": [
        {
          "internalType": "address",
          "name": "_approved",
          "type": "address"
        },
        {
          "internalType": "uint256",
          "name": "_tokenId",
          "type": "uint256"
        }
      ],
      "name": "approve",
      "outputs": [],
      "stateMutability": "nonpayable",
      "type": "function"
    },
    {
      "inputs": [
        {
          "internalType": "address",
          "name": "_owner",
          "type": "address"
        }
      ],
      "name": "balanceOf",
      "outputs": [
        {
          "internalType": "uint256",
          "name": "",
          "type": "uint256"
        }
      ],
      "stateMutability": "view",
      "type": "function"
    },
    {
      "inputs": [
        {
          "internalType": "uint256",
          "name": "_tokenId",
          "type": "uint256"
        }
      ],
      "name": "getApproved",
      "outputs": [
        {
          "internalType": "address",
          "name": "",
          "type": "address"
        }
      ],
      "stateMutability": "view",
      "type": "function"
    },
    {
      "inputs": [
        {
          "internalType": "address",
          "name": "_owner",
          "type": "address"
        },
        {
          "internalType": "address",
          "name": "_operator",
          "type": "address"
        }
      ],
      "name": "isApprovedForAll",
      "outputs": [
        {
          "internalType": "bool",
          "name": "",
          "type": "bool"
        }
      ],
      "stateMutability": "view",
      "type": "function"
    },
    {
      "inputs": [],
      "name": "owner",
      "outputs": [
        {
          "internalType": "address",
          "name": "",
          "type": "address"
        }
      ],
      "stateMutability": "view",
      "type": "function"
    },
    {
      "inputs": [
        {
          "internalType": "uint256",
          "name": "_tokenId",
          "type": "uint256"
        }
      ],
      "name": "ownerOf",
      "outputs": [
        {
          "internalType": "address",
          "name": "",
          "type": "address"
        }
      ],
      "stateMutability": "view",
      "type": "function"
    },
    {
      "inputs": [
        {
          "internalType": "bool[]",
          "name": "_isNotDefault",
          "type": "bool[]"
        },
        {
          "internalType": "uint256[][]",
          "name": "tokenPackages",
          "type": "uint256[][]"
        },
        {
          "internalType": "uint256",
          "name": "nonce",
          "type": "uint256"
        }
      ],
      "name": "payReward",
      "outputs": [],
      "stateMutability": "payable",
      "type": "function"
    },
    {
      "inputs": [],
      "name": "renounceOwnership",
      "outputs": [],
      "stateMutability": "nonpayable",
      "type": "function"
    },
    {
      "inputs": [
        {
          "internalType": "address",
          "name": "_from",
          "type": "address"
        },
        {
          "internalType": "address",
          "name": "_to",
          "type": "address"
        },
        {
          "internalType": "uint256",
          "name": "_tokenId",
          "type": "uint256"
        }
      ],
      "name": "safeTransferFrom",
      "outputs": [],
      "stateMutability": "nonpayable",
      "type": "function"
    },
    {
      "inputs": [
        {
          "internalType": "address",
          "name": "_from",
          "type": "address"
        },
        {
          "internalType": "address",
          "name": "_to",
          "type": "address"
        },
        {
          "internalType": "uint256",
          "name": "_tokenId",
          "type": "uint256"
        },
        {
          "internalType": "bytes",
          "name": "data",
          "type": "bytes"
        }
      ],
      "name": "safeTransferFrom",
      "outputs": [],
      "stateMutability": "nonpayable",
      "type": "function"
    },
    {
      "inputs": [
        {
          "internalType": "address",
          "name": "_operator",
          "type": "address"
        },
        {
          "internalType": "bool",
          "name": "_approved",
          "type": "bool"
        }
      ],
      "name": "setApprovalForAll",
      "outputs": [],
      "stateMutability": "nonpayable",
      "type": "function"
    },
    {
      "inputs": [
        {
          "internalType": "bytes4",
          "name": "interfaceId",
          "type": "bytes4"
        }
      ],
      "name": "supportsInterface",
      "outputs": [
        {
          "internalType": "bool",
          "name": "",
          "type": "bool"
        }
      ],
      "stateMutability": "view",
      "type": "function"
    },
    {
      "inputs": [
        {
          "internalType": "address",
          "name": "_from",
          "type": "address"
        },
        {
          "internalType": "address",
          "name": "_to",
          "type": "address"
        },
        {
          "internalType": "uint256",
          "name": "_tokenId",
          "type": "uint256"
        }
      ],
      "name": "transferFrom",
      "outputs": [],
      "stateMutability": "nonpayable",
      "type": "function"
    },
    {
      "inputs": [
        {
          "internalType": "address",
          "name": "newOwner",
          "type": "address"
        }
      ],
      "name": "transferOwnership",
      "outputs": [],
      "stateMutability": "nonpayable",
      "type": "function"
    }
  ],
  "bytecode": "0x60806040523480156200001157600080fd5b5060405162002ed138038062002ed1833981810160405281019062000037919062000751565b620000576200004b620003a760201b60201c565b620003af60201b60201c565b836001819055508260028190555081600590805190602001906200007d929190620004c8565b5080600990805190602001906200009692919062000557565b5060005b6005805490508110156200039c576200016760016006600060058581548110620000ed577f4e487b7100000000000000000000000000000000000000000000000000000000600052603260045260246000fd5b9060005260206000200160009054906101000a900473ffffffffffffffffffffffffffffffffffffffff1673ffffffffffffffffffffffffffffffffffffffff1673ffffffffffffffffffffffffffffffffffffffff168152602001908152602001600020546200047360201b620011e01790919060201c565b6006600060058481548110620001a6577f4e487b7100000000000000000000000000000000000000000000000000000000600052603260045260246000fd5b9060005260206000200160009054906101000a900473ffffffffffffffffffffffffffffffffffffffff1673ffffffffffffffffffffffffffffffffffffffff1673ffffffffffffffffffffffffffffffffffffffff168152602001908152602001600020819055506001600660006005848154811062000250577f4e487b7100000000000000000000000000000000000000000000000000000000600052603260045260246000fd5b9060005260206000200160009054906101000a900473ffffffffffffffffffffffffffffffffffffffff1673ffffffffffffffffffffffffffffffffffffffff1673ffffffffffffffffffffffffffffffffffffffff1681526020019081526020016000205414156200038657600860058281548110620002fa577f4e487b7100000000000000000000000000000000000000000000000000000000600052603260045260246000fd5b9060005260206000200160009054906101000a900473ffffffffffffffffffffffffffffffffffffffff169080600181540180825580915050600190039060005260206000200160009091909190916101000a81548173ffffffffffffffffffffffffffffffffffffffff021916908373ffffffffffffffffffffffffffffffffffffffff1602179055505b8080620003939062000951565b9150506200009a565b505050505062000a5c565b600033905090565b60008060009054906101000a900473ffffffffffffffffffffffffffffffffffffffff169050816000806101000a81548173ffffffffffffffffffffffffffffffffffffffff021916908373ffffffffffffffffffffffffffffffffffffffff1602179055508173ffffffffffffffffffffffffffffffffffffffff168173ffffffffffffffffffffffffffffffffffffffff167f8be0079c531659141344cd1fd0a4f28419497f9722a3daafe3b4186f6b6457e060405160405180910390a35050565b600080828462000484919062000876565b905083811015620004be577f4e487b7100000000000000000000000000000000000000000000000000000000600052600160045260246000fd5b8091505092915050565b82805482825590600052602060002090810192821562000544579160200282015b82811115620005435782518260006101000a81548173ffffffffffffffffffffffffffffffffffffffff021916908373ffffffffffffffffffffffffffffffffffffffff16021790555091602001919060010190620004e9565b5b509050620005539190620005a9565b5090565b82805482825590600052602060002090810192821562000596579160200282015b828111156200059557825182559160200191906001019062000578565b5b509050620005a59190620005a9565b5090565b5b80821115620005c4576000816000905550600101620005aa565b5090565b6000620005df620005d98462000818565b620007ef565b90508083825260208201905082856020860282011115620005ff57600080fd5b60005b85811015620006335781620006188882620006b2565b84526020840193506020830192505060018101905062000602565b5050509392505050565b6000620006546200064e8462000847565b620007ef565b905080838252602082019050828560208602820111156200067457600080fd5b60005b85811015620006a857816200068d88826200073a565b84526020840193506020830192505060018101905062000677565b5050509392505050565b600081519050620006c38162000a0e565b92915050565b600082601f830112620006db57600080fd5b8151620006ed848260208601620005c8565b91505092915050565b600082601f8301126200070857600080fd5b81516200071a8482602086016200063d565b91505092915050565b600081519050620007348162000a28565b92915050565b6000815190506200074b8162000a42565b92915050565b600080600080608085870312156200076857600080fd5b6000620007788782880162000723565b94505060206200078b878288016200073a565b935050604085015167ffffffffffffffff811115620007a957600080fd5b620007b787828801620006c9565b925050606085015167ffffffffffffffff811115620007d557600080fd5b620007e387828801620006f6565b91505092959194509250565b6000620007fb6200080e565b90506200080982826200091b565b919050565b6000604051905090565b600067ffffffffffffffff821115620008365762000835620009ce565b5b602082029050602081019050919050565b600067ffffffffffffffff821115620008655762000864620009ce565b5b602082029050602081019050919050565b6000620008838262000911565b9150620008908362000911565b9250827fffffffffffffffffffffffffffffffffffffffffffffffffffffffffffffffff03821115620008c857620008c76200099f565b5b828201905092915050565b6000620008e082620008f1565b9050919050565b6000819050919050565b600073ffffffffffffffffffffffffffffffffffffffff82169050919050565b6000819050919050565b6200092682620009fd565b810181811067ffffffffffffffff82111715620009485762000947620009ce565b5b80604052505050565b60006200095e8262000911565b91507fffffffffffffffffffffffffffffffffffffffffffffffffffffffffffffffff8214156200099457620009936200099f565b5b600182019050919050565b7f4e487b7100000000000000000000000000000000000000000000000000000000600052601160045260246000fd5b7f4e487b7100000000000000000000000000000000000000000000000000000000600052604160045260246000fd5b6000601f19601f8301169050919050565b62000a1981620008d3565b811462000a2557600080fd5b50565b62000a3381620008e7565b811462000a3f57600080fd5b50565b62000a4d8162000911565b811462000a5957600080fd5b50565b6124658062000a6c6000396000f3fe6080604052600436106100dd5760003560e01c806370a082311161007f578063a22cb46511610059578063a22cb465146102af578063b88d4fde146102d8578063e985e9c514610301578063f2fde38b1461033e576100dd565b806370a0823114610230578063715018a61461026d5780638da5cb5b14610284576100dd565b806323b872dd116100bb57806323b872dd1461018557806342842e0e146101ae57806343ac23ed146101d75780636352211e146101f3576100dd565b806301ffc9a7146100e2578063081812fc1461011f578063095ea7b31461015c575b600080fd5b3480156100ee57600080fd5b5061010960048036038101906101049190611cd5565b610367565b6040516101169190611ebf565b60405180910390f35b34801561012b57600080fd5b5061014660048036038101906101419190611d27565b6103d1565b6040516101539190611e58565b60405180910390f35b34801561016857600080fd5b50610183600480360381019061017e9190611c1a565b61041f565b005b34801561019157600080fd5b506101ac60048036038101906101a79190611b14565b61056c565b005b3480156101ba57600080fd5b506101d560048036038101906101d09190611b14565b6107a3565b005b6101f160048036038101906101ec9190611c56565b6107b3565b005b3480156101ff57600080fd5b5061021a60048036038101906102159190611d27565b610dc9565b6040516102279190611e58565b60405180910390f35b34801561023c57600080fd5b5061025760048036038101906102529190611aaf565b610e37565b6040516102649190611f5c565b60405180910390f35b34801561027957600080fd5b50610282610e80565b005b34801561029057600080fd5b50610299610f08565b6040516102a69190611e58565b60405180910390f35b3480156102bb57600080fd5b506102d660048036038101906102d19190611bde565b610f31565b005b3480156102e457600080fd5b506102ff60048036038101906102fa9190611b63565b61102e565b005b34801561030d57600080fd5b5061032860048036038101906103239190611ad8565b611054565b6040516103359190611ebf565b60405180910390f35b34801561034a57600080fd5b5061036560048036038101906103609190611aaf565b6110e8565b005b60007f01ffc9a7000000000000000000000000000000000000000000000000000000007bffffffffffffffffffffffffffffffffffffffffffffffffffffffff1916827bffffffffffffffffffffffffffffffffffffffffffffffffffffffff1916149050919050565b600060058054905082106103e457600080fd5b6003600083815260200190815260200160002060009054906101000a900473ffffffffffffffffffffffffffffffffffffffff169050919050565b3373ffffffffffffffffffffffffffffffffffffffff1660058281548110610470577f4e487b7100000000000000000000000000000000000000000000000000000000600052603260045260246000fd5b9060005260206000200160009054906101000a900473ffffffffffffffffffffffffffffffffffffffff1673ffffffffffffffffffffffffffffffffffffffff16146104bb57600080fd5b816003600083815260200190815260200160002060006101000a81548173ffffffffffffffffffffffffffffffffffffffff021916908373ffffffffffffffffffffffffffffffffffffffff160217905550808273ffffffffffffffffffffffffffffffffffffffff163373ffffffffffffffffffffffffffffffffffffffff167f8c5be1e5ebec7d5bd14f71427d1e84f3dd0314c0f7b2291e5b200ac8c7c3b92560405160405180910390a45050565b600580549050811080156105b3575061058481610dc9565b73ffffffffffffffffffffffffffffffffffffffff168373ffffffffffffffffffffffffffffffffffffffff16145b80156105ec5750600073ffffffffffffffffffffffffffffffffffffffff168273ffffffffffffffffffffffffffffffffffffffff1614155b6105f557600080fd5b3373ffffffffffffffffffffffffffffffffffffffff1660058281548110610646577f4e487b7100000000000000000000000000000000000000000000000000000000600052603260045260246000fd5b9060005260206000200160009054906101000a900473ffffffffffffffffffffffffffffffffffffffff1673ffffffffffffffffffffffffffffffffffffffff1614806106f157503373ffffffffffffffffffffffffffffffffffffffff166003600083815260200190815260200160002060009054906101000a900473ffffffffffffffffffffffffffffffffffffffff1673ffffffffffffffffffffffffffffffffffffffff16145b8061078a57506004600061070483610dc9565b73ffffffffffffffffffffffffffffffffffffffff1673ffffffffffffffffffffffffffffffffffffffff16815260200190815260200160002060003373ffffffffffffffffffffffffffffffffffffffff1673ffffffffffffffffffffffffffffffffffffffff16815260200190815260200160002060009054906101000a900460ff165b61079357600080fd5b61079e838383611232565b505050565b6107ae8383836107a3565b505050565b6107bb611494565b73ffffffffffffffffffffffffffffffffffffffff166107d9610f08565b73ffffffffffffffffffffffffffffffffffffffff161461082f576040517f08c379a000000000000000000000000000000000000000000000000000000000815260040161082690611f3c565b60405180910390fd5b6000602067ffffffffffffffff811115610872577f4e487b7100000000000000000000000000000000000000000000000000000000600052604160045260246000fd5b6040519080825280601f01601f1916602001820160405280156108a45781602001600182028036833780820191505090505b50905081602082015260015481805190602001201481906108fb576040517f08c379a00000000000000000000000000000000000000000000000000000000081526004016108f29190611eda565b60405180910390fd5b5083600a908051906020019061091292919061173f565b506000805b600580549050811015610c28576000805b600980549050811015610aa157610a8c600a8281548110610972577f4e487b7100000000000000000000000000000000000000000000000000000000600052603260045260246000fd5b90600052602060002090602091828204019190069054906101000a900460ff1661099d5760006109a0565b60015b60ff16600983815481106109dd577f4e487b7100000000000000000000000000000000000000000000000000000000600052603260045260246000fd5b9060005260206000200154898481518110610a21577f4e487b7100000000000000000000000000000000000000000000000000000000600052603260045260246000fd5b60200260200101518681518110610a61577f4e487b7100000000000000000000000000000000000000000000000000000000600052603260045260246000fd5b6020026020010151610a7391906120df565b610a7d91906120df565b836111e090919063ffffffff16565b91508080610a9990612254565b915050610928565b50610b58816007600060058681548110610ae4577f4e487b7100000000000000000000000000000000000000000000000000000000600052603260045260246000fd5b9060005260206000200160009054906101000a900473ffffffffffffffffffffffffffffffffffffffff1673ffffffffffffffffffffffffffffffffffffffff1673ffffffffffffffffffffffffffffffffffffffff168152602001908152602001600020546111e090919063ffffffff16565b6007600060058581548110610b96577f4e487b7100000000000000000000000000000000000000000000000000000000600052603260045260246000fd5b9060005260206000200160009054906101000a900473ffffffffffffffffffffffffffffffffffffffff1673ffffffffffffffffffffffffffffffffffffffff1673ffffffffffffffffffffffffffffffffffffffff16815260200190815260200160002081905550610c1281846111e090919063ffffffff16565b9250508080610c2090612254565b915050610917565b50803414610c3557600080fd5b60005b600880549050811015610da65760088181548110610c7f577f4e487b7100000000000000000000000000000000000000000000000000000000600052603260045260246000fd5b9060005260206000200160009054906101000a900473ffffffffffffffffffffffffffffffffffffffff1673ffffffffffffffffffffffffffffffffffffffff166108fc6007600060088581548110610d01577f4e487b7100000000000000000000000000000000000000000000000000000000600052603260045260246000fd5b9060005260206000200160009054906101000a900473ffffffffffffffffffffffffffffffffffffffff1673ffffffffffffffffffffffffffffffffffffffff1673ffffffffffffffffffffffffffffffffffffffff168152602001908152602001600020549081150290604051600060405180830381858888f19350505050158015610d92573d6000803e3d6000fd5b508080610d9e90612254565b915050610c38565b506001600b60006101000a81548160ff0219169083151502179055505050505050565b600060058281548110610e05577f4e487b7100000000000000000000000000000000000000000000000000000000600052603260045260246000fd5b9060005260206000200160009054906101000a900473ffffffffffffffffffffffffffffffffffffffff169050919050565b6000600660008373ffffffffffffffffffffffffffffffffffffffff1673ffffffffffffffffffffffffffffffffffffffff168152602001908152602001600020549050919050565b610e88611494565b73ffffffffffffffffffffffffffffffffffffffff16610ea6610f08565b73ffffffffffffffffffffffffffffffffffffffff1614610efc576040517f08c379a0000000000000000000000000000000000000000000000000000000008152600401610ef390611f3c565b60405180910390fd5b610f06600061149c565b565b60008060009054906101000a900473ffffffffffffffffffffffffffffffffffffffff16905090565b80600460003373ffffffffffffffffffffffffffffffffffffffff1673ffffffffffffffffffffffffffffffffffffffff16815260200190815260200160002060008473ffffffffffffffffffffffffffffffffffffffff1673ffffffffffffffffffffffffffffffffffffffff16815260200190815260200160002060006101000a81548160ff0219169083151502179055508173ffffffffffffffffffffffffffffffffffffffff163373ffffffffffffffffffffffffffffffffffffffff167f17307eab39ab6107e8899845ad3d59bd9653f200f220920489ca2b5937696c31836040516110229190611ebf565b60405180910390a35050565b61103984848461056c565b61104584848484611560565b61104e57600080fd5b50505050565b6000600460008473ffffffffffffffffffffffffffffffffffffffff1673ffffffffffffffffffffffffffffffffffffffff16815260200190815260200160002060008373ffffffffffffffffffffffffffffffffffffffff1673ffffffffffffffffffffffffffffffffffffffff16815260200190815260200160002060009054906101000a900460ff16905092915050565b6110f0611494565b73ffffffffffffffffffffffffffffffffffffffff1661110e610f08565b73ffffffffffffffffffffffffffffffffffffffff1614611164576040517f08c379a000000000000000000000000000000000000000000000000000000000815260040161115b90611f3c565b60405180910390fd5b600073ffffffffffffffffffffffffffffffffffffffff168173ffffffffffffffffffffffffffffffffffffffff1614156111d4576040517f08c379a00000000000000000000000000000000000000000000000000000000081526004016111cb90611f1c565b60405180910390fd5b6111dd8161149c565b50565b60008082846111ef9190612089565b905083811015611228577f4e487b7100000000000000000000000000000000000000000000000000000000600052600160045260246000fd5b8091505092915050565b6112856001600660008573ffffffffffffffffffffffffffffffffffffffff1673ffffffffffffffffffffffffffffffffffffffff168152602001908152602001600020546111e090919063ffffffff16565b600660008473ffffffffffffffffffffffffffffffffffffffff1673ffffffffffffffffffffffffffffffffffffffff1681526020019081526020016000208190555061131b6001600660003373ffffffffffffffffffffffffffffffffffffffff1673ffffffffffffffffffffffffffffffffffffffff168152602001908152602001600020546116f290919063ffffffff16565b600660003373ffffffffffffffffffffffffffffffffffffffff1673ffffffffffffffffffffffffffffffffffffffff168152602001908152602001600020819055508160058281548110611399577f4e487b7100000000000000000000000000000000000000000000000000000000600052603260045260246000fd5b9060005260206000200160006101000a81548173ffffffffffffffffffffffffffffffffffffffff021916908373ffffffffffffffffffffffffffffffffffffffff16021790555060006003600083815260200190815260200160002060006101000a81548173ffffffffffffffffffffffffffffffffffffffff021916908373ffffffffffffffffffffffffffffffffffffffff160217905550808273ffffffffffffffffffffffffffffffffffffffff168473ffffffffffffffffffffffffffffffffffffffff167fddf252ad1be2c89b69c2b068fc378daa952ba7f163c4a11628f55a4df523b3ef60405160405180910390a4505050565b600033905090565b60008060009054906101000a900473ffffffffffffffffffffffffffffffffffffffff169050816000806101000a81548173ffffffffffffffffffffffffffffffffffffffff021916908373ffffffffffffffffffffffffffffffffffffffff1602179055508173ffffffffffffffffffffffffffffffffffffffff168173ffffffffffffffffffffffffffffffffffffffff167f8be0079c531659141344cd1fd0a4f28419497f9722a3daafe3b4186f6b6457e060405160405180910390a35050565b6000808473ffffffffffffffffffffffffffffffffffffffff163b11156116e5578373ffffffffffffffffffffffffffffffffffffffff1663150b7a026115a5611494565b8786866040518563ffffffff1660e01b81526004016115c79493929190611e73565b602060405180830381600087803b1580156115e157600080fd5b505af192505050801561161257506040513d601f19601f8201168201806040525081019061160f9190611cfe565b60015b611695573d8060008114611642576040519150601f19603f3d011682016040523d82523d6000602084013e611647565b606091505b5060008151141561168d576040517f08c379a000000000000000000000000000000000000000000000000000000000815260040161168490611efc565b60405180910390fd5b805181602001fd5b63150b7a0260e01b7bffffffffffffffffffffffffffffffffffffffffffffffffffffffff1916817bffffffffffffffffffffffffffffffffffffffffffffffffffffffff1916149150506116ea565b600190505b949350505050565b60008282111561172b577f4e487b7100000000000000000000000000000000000000000000000000000000600052600160045260246000fd5b81836117379190612139565b905092915050565b82805482825590600052602060002090601f016020900481019282156117d45791602002820160005b838211156117a557835183826101000a81548160ff0219169083151502179055509260200192600101602081600001049283019260010302611768565b80156117d25782816101000a81549060ff02191690556001016020816000010492830192600103026117a5565b505b5090506117e191906117e5565b5090565b5b808211156117fe5760008160009055506001016117e6565b5090565b600061181561181084611f9c565b611f77565b9050808382526020820190508285602086028201111561183457600080fd5b60005b8581101561187e57813567ffffffffffffffff81111561185657600080fd5b8086016118638982611a07565b85526020850194506020840193505050600181019050611837565b5050509392505050565b600061189b61189684611fc8565b611f77565b905080838252602082019050828560208602820111156118ba57600080fd5b60005b858110156118ea57816118d08882611a31565b8452602084019350602083019250506001810190506118bd565b5050509392505050565b600061190761190284611ff4565b611f77565b9050808382526020820190508285602086028201111561192657600080fd5b60005b85811015611956578161193c8882611a9a565b845260208401935060208301925050600181019050611929565b5050509392505050565b600061197361196e84612020565b611f77565b90508281526020810184848401111561198b57600080fd5b6119968482856121e1565b509392505050565b6000813590506119ad816123d3565b92915050565b600082601f8301126119c457600080fd5b81356119d4848260208601611802565b91505092915050565b600082601f8301126119ee57600080fd5b81356119fe848260208601611888565b91505092915050565b600082601f830112611a1857600080fd5b8135611a288482602086016118f4565b91505092915050565b600081359050611a40816123ea565b92915050565b600081359050611a5581612401565b92915050565b600081519050611a6a81612401565b92915050565b600082601f830112611a8157600080fd5b8135611a91848260208601611960565b91505092915050565b600081359050611aa981612418565b92915050565b600060208284031215611ac157600080fd5b6000611acf8482850161199e565b91505092915050565b60008060408385031215611aeb57600080fd5b6000611af98582860161199e565b9250506020611b0a8582860161199e565b9150509250929050565b600080600060608486031215611b2957600080fd5b6000611b378682870161199e565b9350506020611b488682870161199e565b9250506040611b5986828701611a9a565b9150509250925092565b60008060008060808587031215611b7957600080fd5b6000611b878782880161199e565b9450506020611b988782880161199e565b9350506040611ba987828801611a9a565b925050606085013567ffffffffffffffff811115611bc657600080fd5b611bd287828801611a70565b91505092959194509250565b60008060408385031215611bf157600080fd5b6000611bff8582860161199e565b9250506020611c1085828601611a31565b9150509250929050565b60008060408385031215611c2d57600080fd5b6000611c3b8582860161199e565b9250506020611c4c85828601611a9a565b9150509250929050565b600080600060608486031215611c6b57600080fd5b600084013567ffffffffffffffff811115611c8557600080fd5b611c91868287016119dd565b935050602084013567ffffffffffffffff811115611cae57600080fd5b611cba868287016119b3565b9250506040611ccb86828701611a9a565b9150509250925092565b600060208284031215611ce757600080fd5b6000611cf584828501611a46565b91505092915050565b600060208284031215611d1057600080fd5b6000611d1e84828501611a5b565b91505092915050565b600060208284031215611d3957600080fd5b6000611d4784828501611a9a565b91505092915050565b611d598161216d565b82525050565b611d688161217f565b82525050565b6000611d7982612051565b611d838185612067565b9350611d938185602086016121f0565b611d9c816122fb565b840191505092915050565b6000611db28261205c565b611dbc8185612078565b9350611dcc8185602086016121f0565b611dd5816122fb565b840191505092915050565b6000611ded603283612078565b9150611df88261230c565b604082019050919050565b6000611e10602683612078565b9150611e1b8261235b565b604082019050919050565b6000611e33602083612078565b9150611e3e826123aa565b602082019050919050565b611e52816121d7565b82525050565b6000602082019050611e6d6000830184611d50565b92915050565b6000608082019050611e886000830187611d50565b611e956020830186611d50565b611ea26040830185611e49565b8181036060830152611eb48184611d6e565b905095945050505050565b6000602082019050611ed46000830184611d5f565b92915050565b60006020820190508181036000830152611ef48184611da7565b905092915050565b60006020820190508181036000830152611f1581611de0565b9050919050565b60006020820190508181036000830152611f3581611e03565b9050919050565b60006020820190508181036000830152611f5581611e26565b9050919050565b6000602082019050611f716000830184611e49565b92915050565b6000611f81611f92565b9050611f8d8282612223565b919050565b6000604051905090565b600067ffffffffffffffff821115611fb757611fb66122cc565b5b602082029050602081019050919050565b600067ffffffffffffffff821115611fe357611fe26122cc565b5b602082029050602081019050919050565b600067ffffffffffffffff82111561200f5761200e6122cc565b5b602082029050602081019050919050565b600067ffffffffffffffff82111561203b5761203a6122cc565b5b612044826122fb565b9050602081019050919050565b600081519050919050565b600081519050919050565b600082825260208201905092915050565b600082825260208201905092915050565b6000612094826121d7565b915061209f836121d7565b9250827fffffffffffffffffffffffffffffffffffffffffffffffffffffffffffffffff038211156120d4576120d361229d565b5b828201905092915050565b60006120ea826121d7565b91506120f5836121d7565b9250817fffffffffffffffffffffffffffffffffffffffffffffffffffffffffffffffff048311821515161561212e5761212d61229d565b5b828202905092915050565b6000612144826121d7565b915061214f836121d7565b9250828210156121625761216161229d565b5b828203905092915050565b6000612178826121b7565b9050919050565b60008115159050919050565b60007fffffffff0000000000000000000000000000000000000000000000000000000082169050919050565b600073ffffffffffffffffffffffffffffffffffffffff82169050919050565b6000819050919050565b82818337600083830152505050565b60005b8381101561220e5780820151818401526020810190506121f3565b8381111561221d576000848401525b50505050565b61222c826122fb565b810181811067ffffffffffffffff8211171561224b5761224a6122cc565b5b80604052505050565b600061225f826121d7565b91507fffffffffffffffffffffffffffffffffffffffffffffffffffffffffffffffff8214156122925761229161229d565b5b600182019050919050565b7f4e487b7100000000000000000000000000000000000000000000000000000000600052601160045260246000fd5b7f4e487b7100000000000000000000000000000000000000000000000000000000600052604160045260246000fd5b6000601f19601f8301169050919050565b7f4552433732313a207472616e7366657220746f206e6f6e20455243373231526560008201527f63656976657220696d706c656d656e7465720000000000000000000000000000602082015250565b7f4f776e61626c653a206e6577206f776e657220697320746865207a65726f206160008201527f6464726573730000000000000000000000000000000000000000000000000000602082015250565b7f4f776e61626c653a2063616c6c6572206973206e6f7420746865206f776e6572600082015250565b6123dc8161216d565b81146123e757600080fd5b50565b6123f38161217f565b81146123fe57600080fd5b50565b61240a8161218b565b811461241557600080fd5b50565b612421816121d7565b811461242c57600080fd5b5056fea2646970667358221220563becc8d0496d51cad1b4c66e73d866fc1cb2cf9a8c94daade57515e7b88e4f64736f6c63430008040033",
  "linkReferences": {},
  "deployedLinkReferences": {}
}